{
  "contractName": "Coupons",
  "abi": [
    {
      "inputs": [],
      "stateMutability": "nonpayable",
      "type": "constructor"
    },
    {
      "inputs": [
        {
          "internalType": "uint256",
          "name": "",
          "type": "uint256"
        }
      ],
      "name": "coupons",
      "outputs": [
        {
          "internalType": "uint256",
          "name": "id",
          "type": "uint256"
        },
        {
          "internalType": "uint256",
          "name": "price",
          "type": "uint256"
        },
        {
          "internalType": "address",
          "name": "owner",
          "type": "address"
        }
      ],
      "stateMutability": "view",
      "type": "function",
      "constant": true
    },
    {
      "inputs": [],
      "name": "owner",
      "outputs": [
        {
          "internalType": "address",
          "name": "",
          "type": "address"
        }
      ],
      "stateMutability": "view",
      "type": "function",
      "constant": true
    },
    {
      "inputs": [
        {
          "internalType": "uint256",
          "name": "_index",
          "type": "uint256"
        }
      ],
      "name": "buyCoupon",
      "outputs": [],
      "stateMutability": "payable",
      "type": "function",
      "payable": true
    }
  ],
  "bytecode": "0x6080604052336000806101000a81548173ffffffffffffffffffffffffffffffffffffffff021916908373ffffffffffffffffffffffffffffffffffffffff16021790555034801561005057600080fd5b5060005b601e8110156101135767016345785d8a0000600182601e811061007a57610079610119565b5b60030201600101819055506000600182601e811061009b5761009a610119565b5b6003020160020160006101000a81548173ffffffffffffffffffffffffffffffffffffffff021916908373ffffffffffffffffffffffffffffffffffffffff16021790555080600182601e81106100f5576100f4610119565b5b6003020160000181905550808061010b90610181565b915050610054565b506101ca565b7f4e487b7100000000000000000000000000000000000000000000000000000000600052603260045260246000fd5b7f4e487b7100000000000000000000000000000000000000000000000000000000600052601160045260246000fd5b6000819050919050565b600061018c82610177565b91507fffffffffffffffffffffffffffffffffffffffffffffffffffffffffffffffff8214156101bf576101be610148565b5b600182019050919050565b6103b5806101d96000396000f3fe6080604052600436106100345760003560e01c806330828e921461003957806386d3ebc7146100785780638da5cb5b14610094575b600080fd5b34801561004557600080fd5b50610060600480360381019061005b9190610281565b6100bf565b60405161006f939291906102fe565b60405180910390f35b610092600480360381019061008d9190610281565b61010f565b005b3480156100a057600080fd5b506100a9610222565b6040516100b69190610335565b60405180910390f35b600181601e81106100cf57600080fd5b600302016000915090508060000154908060010154908060020160009054906101000a900473ffffffffffffffffffffffffffffffffffffffff16905083565b601e81108015610120575060008110155b61012957600080fd5b600073ffffffffffffffffffffffffffffffffffffffff16600182601e811061015557610154610350565b5b6003020160020160009054906101000a900473ffffffffffffffffffffffffffffffffffffffff1673ffffffffffffffffffffffffffffffffffffffff161461019d57600080fd5b600181601e81106101b1576101b0610350565b5b60030201600101543410156101c557600080fd5b33600182601e81106101da576101d9610350565b5b6003020160020160006101000a81548173ffffffffffffffffffffffffffffffffffffffff021916908373ffffffffffffffffffffffffffffffffffffffff16021790555050565b60008054906101000a900473ffffffffffffffffffffffffffffffffffffffff1681565b600080fd5b6000819050919050565b61025e8161024b565b811461026957600080fd5b50565b60008135905061027b81610255565b92915050565b60006020828403121561029757610296610246565b5b60006102a58482850161026c565b91505092915050565b6102b78161024b565b82525050565b600073ffffffffffffffffffffffffffffffffffffffff82169050919050565b60006102e8826102bd565b9050919050565b6102f8816102dd565b82525050565b600060608201905061031360008301866102ae565b61032060208301856102ae565b61032d60408301846102ef565b949350505050565b600060208201905061034a60008301846102ef565b92915050565b7f4e487b7100000000000000000000000000000000000000000000000000000000600052603260045260246000fdfea2646970667358221220e18a46ebd315888f2bb14c95108064e8fe00fb189449ed8f6afc268f789e967664736f6c634300080b0033",
  "immutableReferences": {},
  "source": "pragma solidity >=0.4.22<0.9.0;\r\n\r\nuint256 constant totalCoupons = 30;\r\n\r\ncontract Coupons{\r\n    address public owner =msg.sender;\r\n    \r\n    struct Coupon{\r\n        uint256 id;\r\n        uint256 price;\r\n        address owner;\r\n    }\r\n\r\n    Coupon[totalCoupons] public coupons;\r\n\r\n    constructor(){\r\n        for(uint256 i=0; i<totalCoupons ; i++){\r\n            coupons[i].price = 1e17;//0.1eth\r\n            coupons[i].owner = address(0x0);\r\n            coupons[i].id = i;\r\n        }\r\n    }\r\n    function buyCoupon(uint256 _index) external payable{\r\n        require(_index<totalCoupons && _index>=0);\r\n        require(coupons[_index].owner == address(0x0));\r\n        require(msg.value >= coupons[_index].price);\r\n        coupons[_index].owner = msg.sender;\r\n        }\r\n\r\n}\r\n\r\n",
  "sourcePath": "F:\\finxter\\coupon_dapp\\contracts\\Coupons.sol",
  "compiler": {
    "name": "solc",
    "version": "0.8.11+commit.d7f03943.Emscripten.clang"
  },
  "schemaVersion": "3.4.4",
  "updatedAt": "2022-10-01T07:11:09.631Z",
  "networkType": "ethereum",
  "devdoc": {
    "kind": "dev",
    "methods": {},
    "version": 1
  },
  "userdoc": {
    "kind": "user",
    "methods": {},
    "version": 1
  }
}